:020000040000FA
:10000000680400206D0200008102000083020000ED
:100010008502000087020000890200000000000045
:100020000000000000000000000000008B02000043
:100030008D020000000000008F020000910200000D
:10004000930200009302000093020000930200005C
:10005000930200009302000093020000930200004C
:10006000930200009302000093020000930200003C
:10007000930200009302000093020000930200002C
:10008000930200009302000093020000930200001C
:10009000930200009302000093020000930200000C
:1000A00093020000930200009302000093020000FC
:1000B00093020000930200009302000093020000EC
:1000C00093020000930200009302000093020000DC
:1000D00093020000930200009302000093020000CC
:1000E00093020000930200009302000093020000BC
:1000F00093020000930200009302000093020000AC
:10010000930200009302000093020000930200009B
:10011000930200009302000093020000930200008B
:10012000930200009302000093020000930200007B
:10013000930200009302000093020000930200006B
:1001400000000000000000000000000000000000AF
:10015000930200009302000093020000930200004B
:10016000000000000000000000000000000000008F
:10017000000000000000000000000000000000007F
:10018000000000000000000000000000000000006F
:10019000000000000000000000000000000000005F
:1001A000000000000000000000000000000000004F
:1001B00093020000930200009302000093020000EB
:1001C00093020000930200009302000093020000DB
:1001D00093020000930200009302000093020000CB
:1001E00093020000930200009302000093020000BB
:1001F00093020000930200009302000093020000AB
:10020000930200009302000093020000000000002F
:10021000930200009302000093020000930200008A
:10022000930200009302000093020000930200007A
:10023000930200009302000093020000930200006A
:10024000930200009302000093020000930200005A
:10025000930200009302000093020000930200004A
:100260009302000093020000930200004EF68850B3
:10027000CEF20000016841F47001016000F00AB89C
:10028000FEE7FEE7FEE7FEE7FEE7FEE7FEE7FEE746
:10029000FEE7FEE700F002F800F03CF80AA090E864
:1002A000000C82448344AAF10107DA4501D100F031
:1002B00031F8AFF2090EBAE80F0013F0010F18BFC2
:1002C000FB1A43F001031847F80800001809000062
:1002D000103A24BF78C878C1FAD8520724BF30C872
:1002E00030C144BF04680C60704700000023002444
:1002F00000250026103A28BF78C1FBD8520728BF36
:1003000030C148BF0B6070471FB500F054FC1FBDE3
:1003100010B510BD00F019FC1146FFF7F5FF00F015
:10032000DAF900F037FC03B4FFF7F2FF03BC00F08A
:100330003BFC0000002100BF00E0491C0A22B0FB8A
:10034000F2F202EB420292008A42F6D8704700B500
:100350000346A74803604FF00000A649C1F8E0003B
:100360004FF00A00FFF7E6FFA248D0F8E00040F0A7
:100370000800A049C1F8E0002820FFF7DBFF9D48F6
:10038000D0F8E00020F008009A49C1F8E0002820E9
:10039000FFF7D0FF00BD00B50120FFF7D8FF40F206
:1003A000A460FFF7C7FF0220FFF7D1FF40F2A4606F
:1003B000FFF7C0FF00BD00B500208F49086043F67D
:1003C0009820FFF7B7FF3820FFF7C1FF1020FFF795
:1003D000BEFF0E20FFF7BBFF0620FFF7B8FF00BDF2
:1003E00000B58648006840F01200844908608048E3
:1003F000001D006840F0FF007D49091D086080482D
:10040000006840F0FF007E490860794824300068A9
:1004100020F0FF007649243108607A48006840F0F7
:100420003800784908607848006840F0380076491C
:10043000086074482030006820F03800714920318D
:100440000860FFF7B8FFFFF7A6FF00BD00B5034641
:10045000674803604FF020006649C1F8E0004FF0A4
:100460000A00FFF767FF6348D0F8E00040F008009B
:100470006049C1F8E0002820FFF75CFF5D48D0F834
:10048000E00020F008005B49C1F8E0002820FFF7F9
:1004900051FF00BD00B50346554803604FF02000F2
:1004A0005449C1F8E0004FF00A00FFF743FF5148FC
:1004B000D0F8E00040F008004E49C1F8E0002820E4
:1004C000FFF738FF4B48D0F8E00020F0080049491A
:1004D000C1F8E0002820FFF72DFF00BD10B504464D
:1004E00003E02078FFF7B2FF641C20780028F8D1E1
:1004F00010BD38B504460D4644A000680090691E42
:100500001DF801102144491EC8B2FFF720FF40F238
:10051000A460FFF70FFF38BDF0B504460B4600207E
:10052000214608E052F821605D1E6F1A0125BD408A
:1005300006FB0500491C9942F4DBF0BD2F4800681A
:1005400040F001002D4908600820314908600C2066
:100550003049086004202F490C3908601AE02E4801
:10056000006810F0040002D0042809D104E06FF004
:100570000800294908600CE008202749086008E0C5
:100580002548006820F008004FF04021C1F8FC0326
:1005900000BF00BFE3E71948006840F001001749B9
:1005A000086020201A49086030201A49086010208D
:1005B00018490C3908601848006810F0100002D083
:1005C000102809D103E02020134908600DE06FF0E6
:1005D00020001149086008E00F48006820F0200062
:1005E0004FF04021C1F8FC0300BF00BF704700007E
:1005F000FC53004000400240E040024008E60F404B
:100600001C550040004402401C45024080C00000D0
:10061000004400401C450040FC43004010B501214F
:100620000846FFF766FFFBA0FFF758FF02210120F5
:10063000FFF75FFFFBA0FFF751FF10BD10B5FDA056
:10064000FFF74CFF02210120FFF753FFFCA0FFF74B
:1006500045FFFD48FFF76EFEFFF79DFEFBA0FFF78D
:100660003DFF02210120FFF744FFFCA0FFF736FF0A
:10067000F548FFF75FFEFFF78EFEFAA0FFF72EFFAB
:1006800002210120FFF735FFF8A0FFF727FFEE4812
:10069000FFF750FEFFF77FFEF6A0FFF71FFF0221D6
:1006A0000120FFF726FFF5A0FFF718FFE648FFF748
:1006B00041FEFFF770FEF3A0FFF710FF02210120BB
:1006C000FFF717FFF1A0FFF709FFDF48FFF732FE42
:1006D000FFF761FE10BDACB00024FFF781FEED48CE
:1006E000006840F00400EB4908600846006840F0EC
:1006F000010008606420FFF71DFEE748006840F035
:100700001000E54908600846006840F020000860D5
:10071000E248006840F02000E04908602820E049F5
:1007200008603C20DF4908601420DE490C3908606D
:100730000220FFF7AFFEFFF781FF6AE1DA480068A9
:1007400010F014003DD0042804D0102826D014281E
:1007500010D110E00820D44908604FF0010108468C
:10076000FFF7C7FED1A0FFF7B9FED448FFF7E2FDBF
:10077000FFF711FE4CE10820CB4908604FF0010162
:100780000846FFF7B6FEC9A0FFF7A8FE0221012028
:10079000FFF7AFFECAA0FFF7A1FE39E12020C24952
:1007A00008604FF001010846FFF7A3FEC8A0FFF75D
:1007B00095FE02210120FFF79CFEC9A0FFF78EFEE7
:1007C00026E1B948006820F020004FF04021C1F830
:1007D000FC030846D0F8FC0320F00800C1F8FC0335
:1007E000FFF7D9FD0DE17DE0AC48006840F0100056
:1007F000AA490860BE48006820F01000BD49C1F851
:10080000E00044F25060FFF795FDBA48D0F8E000F0
:1008100040F01000B749C1F8E0001E20FFF78AFD44
:100820009E48006820F010009C49086000BFB04856
:10083000006810F0100FFAD000BFAD48006800F05B
:1008400010001028F9D01EE000BFA948006810F081
:10085000100FFAD02D20FFF76DFDA548006810F0AD
:10086000100F04D1002004A941F8240003E0012066
:1008700004A941F8240000BF9D48006800F0100062
:100880001028F9D0641C282CDEDB002404AA0821DF
:100890000020FFF741FE039004AA10210820FFF773
:1008A0003BFE029004AA18211120FFF735FE824674
:1008B00004AA20211820FFF72FFE834604AA28212E
:1008C0002020FFF729FE8046DDE90210084450444D
:1008D00000EB0B09B9F1FF0F01DDA9F58079C845DF
:1008E00000D105E07048006810F0140F3FF47CAFB1
:1008F00000BF04AA10210020FFF70EFE07460A20C1
:1009000097FBF0F57CA0FFF7E9FD3320FFF79EFD94
:100910000A2095FBF0F100FB11503030C0B201907D
:10092000FFF794FD2E20FFF791FD0A2097FBF0F1D1
:1009300000FB117030300190FFF7ACFD2520FFF770
:1009400085FD02210120FFF7D4FD04AA20211120FA
:10095000FFF7E2FD06460A2096FBF0F568A0FFF7D8
:10096000BDFD3220FFF772FD0A2095FBF0F100FB80
:1009700011503030C0B20190FFF768FD2E20FFF714
:1009800065FD0A2096FBF0F100FB11603030C0B22B
:100990000190FFF75BFD6F20FFF758FD4320FFF745
:1009A00055FD0A2095FBF0F100FB115030305649FF
:1009B00008600A2095FBF0F00A2190FBF1F201FBA0
:1009C00012000A300A2807DB5048006840F0200077
:1009D0004849C1F8FC0306E04C48006820F02000BC
:1009E0004449C1F8FC034A48FFF7A4FC4FF47A706D
:1009F000FFF7A0FCFFF712FE4548FFF79BFCFFF74F
:100A0000CAFC2948006810F0140F3FF4ECAE00BF98
:100A100000BF93E64C69676874203D206F6B617975
:100A2000000000004D6F6973747572653D206F6B37
:100A30006179000057656C636F6D6520546F00002D
:100A4000536D61727400000040420F0054756E6E69
:100A5000656C206661726D696E670000537973740E
:100A6000656D000047726F75700000004D656D6226
:100A7000657273005545543A203432005545543A56
:100A8000203430005545543A203435005545543A09
:100A90002030320008E60F401C6500400064004032
:100AA000004400401C450040FC4300404C6967681E
:100AB00074206973206C6F7700000000A08601002D
:100AC0004D6F697374757265206973206C6F770060
:100AD0004D6F697374757265206C6F77000000004C
:100AE0004D6F746F722072756E6E696E67000000D4
:100AF000E06000400060004020205248203D20007F
:100B000054656D70203D200004000020FC6300400F
:100B100080841E0072B6704762B67047EFF3108093
:100B200072B6704780F31088704730BF7047024834
:100B30000249014A024B7047680000206804002007
:100B400068000020704770477047754600F028F82D
:100B5000AE4605006946534620F00700854618B0AA
:100B600020B5FFF7E4FFBDE820404FF000064FF04E
:100B700000074FF000084FF0000B21F00701AC46D2
:100B8000ACE8C009ACE8C009ACE8C009ACE8C009F1
:100B90008D4670470446AFF300802046FFF7C3FB45
:100BA000004870470800002001491820ABBEFEE74E
:100BB0002600020070474FF04070E1EE100A7047C7
:100BC000E00B00000000002008000000D002000040
:100BD000E80B00000800002060040000EC020000A8
:080BE00003000000000000000A
:040000050000026D88
:00000001FF
